{
  "_format": "hh-sol-artifact-1",
  "contractName": "Token",
  "sourceName": "contracts/Token.sol",
  "abi": [
    {
      "inputs": [],
      "stateMutability": "nonpayable",
      "type": "constructor"
    },
    {
      "inputs": [
        {
          "internalType": "address",
          "name": "account",
          "type": "address"
        }
      ],
      "name": "balanceOf",
      "outputs": [
        {
          "internalType": "uint256",
          "name": "",
          "type": "uint256"
        }
      ],
      "stateMutability": "view",
      "type": "function"
    },
    {
      "inputs": [],
      "name": "name",
      "outputs": [
        {
          "internalType": "string",
          "name": "",
          "type": "string"
        }
      ],
      "stateMutability": "view",
      "type": "function"
    },
    {
      "inputs": [],
      "name": "owner",
      "outputs": [
        {
          "internalType": "address",
          "name": "",
          "type": "address"
        }
      ],
      "stateMutability": "view",
      "type": "function"
    },
    {
      "inputs": [],
      "name": "symbol",
      "outputs": [
        {
          "internalType": "string",
          "name": "",
          "type": "string"
        }
      ],
      "stateMutability": "view",
      "type": "function"
    },
    {
      "inputs": [],
      "name": "totalSupply",
      "outputs": [
        {
          "internalType": "uint256",
          "name": "",
          "type": "uint256"
        }
      ],
      "stateMutability": "view",
      "type": "function"
    },
    {
      "inputs": [
        {
          "internalType": "address",
          "name": "to",
          "type": "address"
        },
        {
          "internalType": "uint256",
          "name": "amount",
          "type": "uint256"
        }
      ],
      "name": "transfer",
      "outputs": [],
      "stateMutability": "nonpayable",
      "type": "function"
    }
  ],
  "bytecode": "0x60806040526040518060400160405280600d81526020017f4861726448617420546f6b656e000000000000000000000000000000000000008152506000908051906020019061004f92919061013b565b506040518060400160405280600381526020017f48485400000000000000000000000000000000000000000000000000000000008152506001908051906020019061009b92919061013b565b506127106002553480156100ae57600080fd5b50600254600460003373ffffffffffffffffffffffffffffffffffffffff1673ffffffffffffffffffffffffffffffffffffffff1681526020019081526020016000208190555033600360006101000a81548173ffffffffffffffffffffffffffffffffffffffff021916908373ffffffffffffffffffffffffffffffffffffffff16021790555061023f565b828054610147906101de565b90600052602060002090601f01602090048101928261016957600085556101b0565b82601f1061018257805160ff19168380011785556101b0565b828001600101855582156101b0579182015b828111156101af578251825591602001919060010190610194565b5b5090506101bd91906101c1565b5090565b5b808211156101da5760008160009055506001016101c2565b5090565b600060028204905060018216806101f657607f821691505b6020821081141561020a57610209610210565b5b50919050565b7f4e487b7100000000000000000000000000000000000000000000000000000000600052602260045260246000fd5b610a5f8061024e6000396000f3fe608060405234801561001057600080fd5b50600436106100625760003560e01c806306fdde031461006757806318160ddd1461008557806370a08231146100a35780638da5cb5b146100d357806395d89b41146100f1578063a9059cbb1461010f575b600080fd5b61006f61012b565b60405161007c919061071f565b60405180910390f35b61008d6101b9565b60405161009a91906107cf565b60405180910390f35b6100bd60048036038101906100b8919061061d565b6101bf565b6040516100ca91906107cf565b60405180910390f35b6100db610208565b6040516100e89190610704565b60405180910390f35b6100f961022e565b604051610106919061071f565b60405180910390f35b6101296004803603810190610124919061064a565b6102bc565b005b60008054610138906108ff565b80601f0160208091040260200160405190810160405280929190818152602001828054610164906108ff565b80156101b15780601f10610186576101008083540402835291602001916101b1565b820191906000526020600020905b81548152906001019060200180831161019457829003601f168201915b505050505081565b60025481565b6000600460008373ffffffffffffffffffffffffffffffffffffffff1673ffffffffffffffffffffffffffffffffffffffff168152602001908152602001600020549050919050565b600360009054906101000a900473ffffffffffffffffffffffffffffffffffffffff1681565b6001805461023b906108ff565b80601f0160208091040260200160405190810160405280929190818152602001828054610267906108ff565b80156102b45780601f10610289576101008083540402835291602001916102b4565b820191906000526020600020905b81548152906001019060200180831161029757829003601f168201915b505050505081565b61033a6040518060400160405280601f81526020017f2a2a53656e6465722062616c616e636520697320257320746f6b656e732a2a00815250600460003373ffffffffffffffffffffffffffffffffffffffff1673ffffffffffffffffffffffffffffffffffffffff1681526020019081526020016000205461048f565b61035d6040518060600160405280602d81526020016109fd602d9139828461052b565b80600460003373ffffffffffffffffffffffffffffffffffffffff1673ffffffffffffffffffffffffffffffffffffffff1681526020019081526020016000205410156103df576040517f08c379a00000000000000000000000000000000000000000000000000000000081526004016103d6906107af565b60405180910390fd5b80600460003373ffffffffffffffffffffffffffffffffffffffff1673ffffffffffffffffffffffffffffffffffffffff168152602001908152602001600020600082825461042e919061085c565b9250508190555080600460008473ffffffffffffffffffffffffffffffffffffffff1673ffffffffffffffffffffffffffffffffffffffff16815260200190815260200160002060008282546104849190610806565b925050819055505050565b61052782826040516024016104a5929190610741565b6040516020818303038152906040527fb60e72cc000000000000000000000000000000000000000000000000000000007bffffffffffffffffffffffffffffffffffffffffffffffffffffffff19166020820180517bffffffffffffffffffffffffffffffffffffffffffffffffffffffff83818316178352505050506105ca565b5050565b6105c583838360405160240161054393929190610771565b6040516020818303038152906040527f1c7ec448000000000000000000000000000000000000000000000000000000007bffffffffffffffffffffffffffffffffffffffffffffffffffffffff19166020820180517bffffffffffffffffffffffffffffffffffffffffffffffffffffffff83818316178352505050506105ca565b505050565b60008151905060006a636f6e736f6c652e6c6f679050602083016000808483855afa5050505050565b600081359050610602816109ce565b92915050565b600081359050610617816109e5565b92915050565b6000602082840312156106335761063261098f565b5b6000610641848285016105f3565b91505092915050565b600080604083850312156106615761066061098f565b5b600061066f858286016105f3565b925050602061068085828601610608565b9150509250929050565b61069381610890565b82525050565b60006106a4826107ea565b6106ae81856107f5565b93506106be8185602086016108cc565b6106c781610994565b840191505092915050565b60006106df6011836107f5565b91506106ea826109a5565b602082019050919050565b6106fe816108c2565b82525050565b6000602082019050610719600083018461068a565b92915050565b600060208201905081810360008301526107398184610699565b905092915050565b6000604082019050818103600083015261075b8185610699565b905061076a60208301846106f5565b9392505050565b6000606082019050818103600083015261078b8186610699565b905061079a60208301856106f5565b6107a7604083018461068a565b949350505050565b600060208201905081810360008301526107c8816106d2565b9050919050565b60006020820190506107e460008301846106f5565b92915050565b600081519050919050565b600082825260208201905092915050565b6000610811826108c2565b915061081c836108c2565b9250827fffffffffffffffffffffffffffffffffffffffffffffffffffffffffffffffff0382111561085157610850610931565b5b828201905092915050565b6000610867826108c2565b9150610872836108c2565b92508282101561088557610884610931565b5b828203905092915050565b600061089b826108a2565b9050919050565b600073ffffffffffffffffffffffffffffffffffffffff82169050919050565b6000819050919050565b60005b838110156108ea5780820151818401526020810190506108cf565b838111156108f9576000848401525b50505050565b6000600282049050600182168061091757607f821691505b6020821081141561092b5761092a610960565b5b50919050565b7f4e487b7100000000000000000000000000000000000000000000000000000000600052601160045260246000fd5b7f4e487b7100000000000000000000000000000000000000000000000000000000600052602260045260246000fd5b600080fd5b6000601f19601f8301169050919050565b7f4e6f7420656e6f75676820746f6b656e73000000000000000000000000000000600082015250565b6109d781610890565b81146109e257600080fd5b50565b6109ee816108c2565b81146109f957600080fd5b5056fe2a2a53656e6465722069732073656e64696e6720257320746f6b656e7320746f20257320616464726573732a2aa26469706673582212206b2b6f2c0a597d94a6385ef1dfdafac0a27054c75fbb3caeddd746ef96f069bf64736f6c63430008070033",
  "linkReferences": {},
  "deployedLinkReferences": {}
}